:020000040000fa
:080000000002040000000000f2
:020000040000fa
:04000800d80200001a
:020000040000fa
:04000c00d802000016
:020000040000fa
:04001000d802000012
:020000040000fa
:04001400d80200000e
:020000040000fa
:04001800d80200000a
:020000040000fa
:04001c00d802000006
:020000040000fa
:04002000d802000002
:020000040000fa
:04002400d8020000fe
:020000040000fa
:04002800d8020000fa
:020000040000fa
:04002c00d8020000f6
:020000040000fa
:04003000d8020000f2
:020000040000fa
:04003400d8020000ee
:020000040000fa
:04003800d8020000ea
:020000040000fa
:04003c00d8020000e6
:020000040000fa
:04004000d8020000e2
:020000040000fa
:04004400d8020000de
:020000040000fa
:04004800d8020000da
:020000040000fa
:04004c00d8020000d6
:020000040000fa
:04005000d8020000d2
:020000040000fa
:04005400d8020000ce
:020000040000fa
:04005800d8020000ca
:020000040000fa
:04005c00d8020000c6
:020000040000fa
:04006000d8020000c2
:020000040000fa
:04006400d8020000be
:020000040000fa
:04006800d8020000ba
:020000040000fa
:04006c00d8020000b6
:020000040000fa
:04007000d8020000b2
:020000040000fa
:04007400d8020000ae
:020000040000fa
:04007800d8020000aa
:020000040000fa
:04007c00d8020000a6
:020000040000fa
:04008000d8020000a2
:020000040000fa
:04008400d80200009e
:020000040000fa
:04008800d80200009a
:020000040000fa
:04008c00d802000096
:020000040000fa
:04009000d802000092
:020000040000fa
:04009400d80200008e
:020000040000fa
:04009800d80200008a
:020000040000fa
:04009c00d802000086
:020000040000fa
:0400a000d802000082
:020000040000fa
:0400a400d80200007e
:020000040000fa
:0400a800d80200007a
:020000040000fa
:0400ac00d802000076
:020000040000fa
:0400b000d802000072
:020000040000fa
:0400b400d80200006e
:020000040000fa
:0400b800d80200006a
:020000040000fa
:0400bc00d802000066
:020000040000fa
:0400c000d802000062
:020000040000fa
:0400c400d80200005e
:020000040000fa
:0400c800d80200005a
:020000040000fa
:0400cc00d802000056
:020000040000fa
:0400d000d802000052
:020000040000fa
:0400d400d80200004e
:020000040000fa
:0400d800d80200004a
:020000040000fa
:0400dc00d802000046
:020000040000fa
:0400e000d802000042
:020000040000fa
:0400e400d80200003e
:020000040000fa
:0400e800d80200003a
:020000040000fa
:0400ec00d802000036
:020000040000fa
:0400f000d802000032
:020000040000fa
:0400f400d80200002e
:020000040000fa
:0400f800d80200002a
:020000040000fa
:0400fc00d802000026
:020000040000fa
:04010000d802000021
:020000040000fa
:04010400d80200001d
:020000040000fa
:04010800d802000019
:020000040000fa
:04010c00d802000015
:020000040000fa
:04011000d802000011
:020000040000fa
:04011400d80200000d
:020000040000fa
:04011800d802000009
:020000040000fa
:04011c00d802000005
:020000040000fa
:04012000d802000001
:020000040000fa
:04012400d8020000fd
:020000040000fa
:04012800d8020000f9
:020000040000fa
:04012c00d8020000f5
:020000040000fa
:04013000d8020000f1
:020000040000fa
:04013400d8020000ed
:020000040000fa
:04013800d8020000e9
:020000040000fa
:04013c00d8020000e5
:020000040000fa
:04014000d8020000e1
:020000040000fa
:04014400d8020000dd
:020000040000fa
:04020800d802000018
:020000040000fa
:04020c00d802000014
:020000040000fa
:04021000d802000010
:020000040000fa
:04021400d80200000c
:020000040000fa
:04021800d802000008
:020000040000fa
:04021c00d802000004
:020000040000fa
:04022000d802000000
:020000040000fa
:04022400d8020000fc
:020000040000fa
:04022800d8020000f8
:020000040000fa
:04022c00d8020000f4
:020000040000fa
:04023000d8020000f0
:020000040000fa
:04023400d8020000ec
:020000040000fa
:04023800d8020000e8
:020000040000fa
:04023c00d8020000e4
:020000040000fa
:04024000d8020000e0
:020000040000fa
:04024400d8020000dc
:020000040000fa
:04024800d8020000d8
:020000040000fa
:04024c00d8020000d4
:020000040000fa
:04025000d8020000d0
:020000040000fa
:04025400d8020000cc
:020000040000fa
:04025800d8020000c8
:020000040000fa
:04025c00d8020000c4
:020000040000fa
:04026000d8020000c0
:020000040000fa
:04026400d8020000bc
:020000040000fa
:04026800d8020000b8
:020000040000fa
:04026c00d8020000b4
:020000040000fa
:04027000d8020000b0
:020000040000fa
:04027400d8020000ac
:020000040000fa
:04027800d8020000a8
:020000040000fa
:04027c00d8020000a4
:020000040000fa
:04028000d8020000a0
:020000040000fa
:04028400d80200009c
:020000040000fa
:04028800d802000098
:020000040000fa
:04028c00d802000094
:020000040000fa
:04029000d802000090
:020000040000fa
:04029400d80200008c
:020000040000fa
:04029800d802000088
:020000040000fa
:04029c00d802000084
:020000040000fa
:0402a000d802000080
:020000040000fa
:0402a400d80200007c
:020000040000fa
:0402a800d802000078
:020000040000fa
:0402ac00d802000074
:020000040000fa
:0402b000d802000070
:020000040000fa
:0402b400d80200006c
:020000040000fa
:0402b800d802000068
:020000040000fa
:0402bc00d802000064
:020000040000fa
:0402c000d802000060
:020000040000fa
:0402c400d80200005c
:020000040000fa
:0402c800d802000058
:020000040000fa
:0402cc00d802000054
:020000040000fa
:0402d000d802000050
:020000040000fa
:0402d400d80200004c
:020000040000fa
:0402d800d802000048
:020000040000fa
:0402dc00d802000044
:020000040000fa
:0402e000d802000040
:020000040000fa
:0402e400d80200003c
:020000040000fa
:0402e800d802000038
:020000040000fa
:0402ec00d802000034
:020000040000fa
:0402f000d802000030
:020000040000fa
:0402f400d80200002c
:020000040000fa
:0402f800d802000028
:020000040000fa
:0402fc00d802000024
:020000040000fa
:04030000d80200001f
:020000040000fa
:04030400d80200001b
:020000040000fa
:04030800d802000017
:020000040000fa
:04030c00d802000013
:020000040000fa
:04031000d80200000f
:020000040000fa
:04031400d80200000b
:020000040000fa
:04031800d802000007
:020000040000fa
:04031c00d802000003
:020000040000fa
:04032000d8020000ff
:020000040000fa
:04032400d8020000fb
:020000040000fa
:04032800d8020000f7
:020000040000fa
:04032c00d8020000f3
:020000040000fa
:04033000d8020000ef
:020000040000fa
:04033400d8020000eb
:020000040000fa
:04033800d8020000e7
:020000040000fa
:04033c00d8020000e3
:020000040000fa
:04034000d8020000df
:020000040000fa
:04034400d8020000db
:020000040000fa
:100400002f8020000eff27000e0188000000000052
:10041000000020000000e000020032000001200087
:10042000200288000e000700a065200001002000c7
:10043000810f700001003200220007000000200040
:100440000000e00002003200000002000000000096
:1004500042060200000000000040da000000fe003a
:100460004440a900000020000000e000030032002a
:1004700000002000a00188004440a8000000060001
:10048000f03fb1000180b10006003500ee03090025
:1004900000000000403fb1000180b100fbff3d00c3
:1004a0001000b000203fb0000200350000800900bd
:1004b00000000000000006008a1f78008b1f7800f3
:1004c0000000060091018800800478000000eb0025
:1004d0001a003700e284440032a0b4009905ba0043
:1004e000e284440032a0b4009906ba00e2844400d9
:1004f00032a0b4000006eb00476fde00fd07b2003b
:10050000636ce10003003a00ebff07000000eb0022
:100510000a003700606ce10004003a00005deb0067
:100520008b05e900fdff3e00040037006168e10033
:10053000010032000086eb000b00070019c7ba006b
:100540001905ba000e04e00003003a000a00e000ba
:10055000e0ff3a0000000600fe07b2009e0188009e
:100560008a047800f5ff3700395dba008b05e90091
:100570000c003200295dba008b05e900080032004a
:100580000c00e00003003a00e284440032a0b40012
:10059000f5ff370019ddba008b05e900faff3a00d4
:1005a0008904e800e184440032a0b40000000600a1
:1005b0000040da000000fe004211880000118800af
:0805c000111188000000060083
:020000040000fa
:1005c8000000fa006200200001402000000028001e
:1005d800f7ff070000802e0031002000a6ff07006b
:1005e8000080fa00000006000200fa00004f7800c0
:1005f800010037000000000023c2bf006240600015
:100608000004e000fbff3a001e80fb002011880078
:10061800010037000000000023c2bf0061406000f5
:100628000004e000fbff32000080fa000000060032
:100638000600fa0010079800414798000040eb00b8
:10064800004f7800070037001e80fb00800078000c
:100658001e0090000080400010407800e2ff070074
:100668001e4fe8004e4090009e4f1000f6ff3900e4
:100678000080fa00000006000200fa00004f78002f
:10068800c0c7b300d8ff07001e407800d6ff070098
:100698000080fa00000006000000fa00c0c7b3009e
:1006a800d1ff07000040eb00cfff07000080fa00f1
:1006b800000006000200fa00000f7800c0c7b3006f
:1006c800c9ff070010c0b300c7ff07001e0078006d
:1006d800c5ff07000080fa00000006000200fa00cb
:1006e800000f7800c0c7b300bfff070020c0b300e9
:1006f800bdff07001e007800bbff07000080fa005e
:10070800000006000800fa00000f780011079800a2
:100718002207980033079800c0c7b300b2ff07004c
:1007280030c0b300b0ff07001e007800aeff07001e
:100738001e009000acff07002e009000aaff0700e3
:100748003e009000a8ff07000080fa0000000600a5
:100758000000fa00c0c7b300a3ff070040c0b30001
:10076800a1ff07000080fa00000006000800fa0058
:10077800000f7800110798002207980033079800a7
:10078800c0c7b30098ff070050c0b30096ff07002a
:100798001e00780094ff07001e00900092ff0700db
:1007a8002e00900090ff07003e0090008eff07008b
:1007b8000080fa00000006000000fa00c0c7b3007d
:1007c80089ff070060c0b30087ff07000080fa00b8
:1007d800000006000200fa00000f78001e00e0008a
:1007e80002003c0010002000000f7800600020008c
:1007f8009e0f10000200340060002000000f7800f7
:10080800c0c7b30078ff070070c0b30076ff0700c9
:100818001e00780074ff07000080fa000000060040
:100828000000fa00c0c7b3006fff070080c0b30024
:100838006dff07000080fa00000006000200fa00c1
:10084800000f7800c0c7b30067ff0700a0c0b3005f
:1008580065ff07001e00780063ff07000080fa00ac
:10086800000006000800fa00000f78001107980041
:100878002207980033079800c0c7b3005aff070043
:10088800b0c0b30058ff07001e00780056ff0700ed
:100898001e00900054ff07002e00900052ff070032
:1008a8003e00900050ff07000080fa00000006009c
:1008b8000a00fa00000f7800110798002207980034
:1008c8003307980044079800c0c7b30046ff0700e5
:1008d800c0c0b30044ff07001e00780042ff0700b5
:1008e8001e00900040ff07002e0090003eff07000a
:1008f8003e0090003cff07004e0090003aff0700c2
:100908000080fa00000006000a00fa0010079800ac
:10091800210798003207980043079800c0c7b30022
:1009280031ff0700d0c0b3002fff07001e00900062
:100938002dff07002e0090002bff07003e009000bf
:1009480029ff07000000eb00000f780007003700c0
:100958001e007800800078004e0090000080400063
:100968001040780020ff07001e0fe800f00120006b
:100978009e0f1000f6ff34000080fa000000060009
:100988000a00fa00000f7800110798002207980063
:100998003307980044079800c0c7b30012ff070048
:1009a800f0c0b30010ff07001e0078000eff07001c
:1009b8001e0090000cff07002e0090000aff0700a1
:1009c8003e00900008ff07004e00900006ff070059
:1009d8000080fa00000006000600fa00000f780008
:1009e8001107980022079800c0c7b300fefe070051
:1009f80000c1b300fcfe0700000820009e0f100095
:100a08000300340000c8b300f7fe070007003700f2
:100a18001e00e00003003d000040eb00f2fe07006e
:100a2800020037001e007800effe07009e009000cd
:100a380000042000808f50000300340000c4b3007d
:100a4800e9fe0700080037001e0090000000e000e3
:100a580003003d000040eb00e3fe07000200370002
:100a68001e009000e0fe07002e009000e10f5000ed
:100a7800060032002e0090000000e0000300320063
:100a880010c0b300d8fe0700020037002e00900007
:100a9800d5fe07000080fa00000006000a00fa00f0
:100aa800000f780011079800220798003307980074
:100ab800044f9800c0c7b300cbfe070020c1b300a5
:100ac800c9fe07001e007800c7fe07001e00900040
:100ad800c5fe07002e009000c3fe07003e009000f0
:100ae800c1fe07000e489000bffe07000080fa0014
:100af800000006000000fa00c0c7b300bafe0700f5
:100b080040c1b300b8fe07000080fa0000000600ec
:100b18000000fa00c0c7b300b3fe070050c1b3001d
:100b2800b1fe07000080fa00000006000e00fa007f
:100b3800100798002107980032079800430798008b
:100b48005407980065079800c0c7b300a6fe0700c1
:100b580060c1b300a4fe07001e009000a2fe0700bb
:100b68002e009000a0fe07003e0090009efe0700a9
:100b78004e0090009cfe07005e0090009afe070061
:100b8800ce0090005e0090000088b900820020002e
:100b9800110009000200d800000f78000000eb00e7
:100ba80010079800090037001e00900080007800a8
:100bb8006e00900000804000104078008afe070018
:100bc8001e0090000000e800100798001e0090002a
:100bd8009e0f5000f4ff35000080fa000000060068
:100be8000400fa00000f780011079800c0c7b3008e
:100bf8007dfe070080c1b3007bfe07001e00780061
:100c080079fe0700c0c7b30077fe070090c1b300a4
:100c180075fe07001e00900073fe07000080fa00b2
:100c2800000006000400fa00100798001e0090005b
:100c3800e80f5000030034008000200010079800df
:100c48000c0037001e0090000000e00003003c008c
:100c58001000200010079800060037001e009000c2
:100c68004300dd00680f50009e007800100020004f
:100c7800dbff07000080fa00000006000000fa0011
:100c880010002000004088004dfe07000040eb00e7
:100c980079fe070013002000a20020004102200076
:0c0ca800e004200097fe0700ffff37006b
:020000040000fa
:100cb4000008000002000000020000000100000023
:040cc400000000002c
:020000040000fa
:0200000401f009
:04000800ffffff00f7
:020000040000fa
:0200000401f009
:04000c00a30000004d
:020000040000fa
:0200000401f009
:04001000c500000027
:020000040000fa
:0200000401f009
:040014005f00000089
:00000001FF
